:100000000C942A000C943F000C943F000C943F0089
:100010000C943F000C943F000C943F000C943F0064
:100020000C943F000C943F000C943F000C943F0054
:100030000C943F000C943F000C943F000C943F0044
:100040000C943F000C943F000C943F000C943F0034
:100050000C943F0011241FBECFE5D8E0DEBFCDBF1A
:1000600010E0A0E6B0E0E4E3F4E002C005900D92F9
:10007000A037B107D9F70E946E010C9418020C94B6
:10008000000080FF02C0C29A01C0C29881FF02C076
:10009000C39A01C0C39882FF02C0C49A01C0C49829
:1000A00083FF02C0C59A0895C59808951F93182F1D
:1000B000C19A82958F700E944100C198C19A812F88
:1000C0000E944100C19885E88A95F1F71F91089533
:1000D000C0980E9456000895C09A0E945600089544
:1000E000CF93DF93EC0103C021960E946C008881BE
:1000F0008823D1F7DF91CF9108956295660F660F3F
:10010000607C680F862F80680E946800089581E0F7
:100110000E94680080EA9FE00197F1F7089582E06D
:100120000E94680080EA9FE00197F1F708951F930D
:10013000CF93DF93BA9ABB9ABC9ABD9AB99AB89AF0
:1001400080E395E70197F1F7C098C19810E0C0E10E
:10015000D7E2C19A83E00E944100C198CE01019785
:10016000F1F71F5F1330A9F7C19A82E00E944100A6
:10017000C19880ED97E00197F1F788E20E9468004E
:1001800088E00E94680081E00E94680080EA9FE0A9
:100190000197F1F786E00E9468008CE00E946800F9
:1001A000DF91CF911F9108953E9A309A319A329AF9
:1001B000379A08958330C1F0843028F4813071F08B
:1001C000823080F409C08530A1F0853080F086301F
:1001D00099F08730B1F412C0389801C0389A399834
:1001E0003A980FC0389801C0389A399AF9CF3898A0
:1001F00001C0389A399804C0389801C0389A399AA1
:100200003A9A369A3699FECF24B135B1C90108958C
:1002100024EF31E040E050E00E94C3012EEF33E0D4
:1002200040E050E00E94F601C90108959C01A39AA4
:1002300056954795CA01860F971F8217930728F096
:10024000641B750B2617370720F4AB9A21E030E0CA
:1002500003C0AB9820E030E0C9010895DF93CF934D
:10026000CDB7DEB728970FB6F894DEBF0FBECDBF6F
:100270009C01DE011196E0E6F0E088E001900D922D
:100280008150E1F7C90164E670E00E94E201CB0110
:100290006AE070E00E94E201805D8983C9016AE042
:1002A00070E00E94E201CB016AE070E00E94E2018E
:1002B000805D8B83C9016AE070E00E94E201805D8D
:1002C0008C83CE0101960E94700028960FB6F89498
:1002D000DEBF0FBECDBFCF91DF910895CF92DF92E9
:1002E000EF92FF920F931F93D89A0E94D4000E941E
:1002F00097000E948F000E94870080E00E94DA0031
:10030000A0E0B0E0BC01CD010E9408016C0180E0DA
:1003100060E00E947D00C6010E942E0181E00E94E3
:10032000DA00A0E0B0E0BC01CD010E9408017C0130
:1003300080E061E00E947D00C7010E942E0182E002
:100340000E94DA00A0E0B0E0BC01CD010E940801EB
:100350008C0188E060E00E947D00C8010E942E01AF
:1003600088E061E00E947D00C601B701A8010E94FB
:100370001601892B19F088E690E002C08CE690E027
:100380000E947000BACF629FD001739FF001829FDC
:10039000E00DF11D649FE00DF11D929FF00D839F14
:1003A000F00D749FF00D659FF00D9927729FB00DB1
:1003B000E11DF91F639FB00DE11DF91FBD01CF01C4
:1003C00011240895AA1BBB1B51E107C0AA1FBB1F24
:1003D000A617B70710F0A61BB70B881F991F5A95D1
:1003E000A9F780959095BC01CD010895A1E21A2E40
:1003F000AA1BBB1BFD010DC0AA1FBB1FEE1FFF1FC9
:10040000A217B307E407F50720F0A21BB30BE40B18
:10041000F50B661F771F881F991F1A9469F760955F
:100420007095809590959B01AC01BD01CF01089519
:04043000F894FFCF6E
:10043400302C30305B565D004F4E20004F46460056
:00000001FF
