:100000000C942A000C94AA000C9447000C9447000E
:100010000C9447000C9447000C9447000C948D00FE
:100020000C9447000C9447000C9447000C94470034
:100030000C9447000C9447000C9447000C94470024
:100040000C9447000C9447000C9447000C94470014
:100050000C94470011241FBECFE5D8E0DEBFCDBF12
:1000600010E0A0E6B0E0ECEBF1E002C005900D92EC
:10007000AC36B107D9F710E0ACE6B0E001C01D9294
:10008000A437B107E1F70E9477000C94DC000C94D0
:1000900000008EB588608EBD8EB584608EBD89E00F
:1000A0009DE39BBD8ABD89B78F7E89BF08958FEF81
:1000B00084BB8BE785BB0895E1E6F0E0E80FF11D16
:1000C000808185BB089510926C0089B78F7E89BFAF
:1000D000C09A80E593EC28EC30E0F9013197F1F714
:1000E0000197D9F7C09881E080936D0008950E9430
:1000F00049008FEF84BB8BE785BB7894B89A85B7AE
:10010000826085BF8BB780648BBF929A80916C00B0
:100110008A30E0F30E946300F9CF1F920F920FB66E
:100120000F9211248F93EF93FF9380916C00E1E67F
:10013000F0E0E80FF11D808185BB80916C008F5F3E
:1001400080936C00FF91EF918F910F900FBE0F90F5
:100150001F9018951F920F920FB60F9211248F9334
:1001600080916000882359F480916D00882339F4D0
:1001700089B78F7E89BF81E080936D0017C0809121
:100180006000882371F480916D00813051F41092E9
:100190006C0010926D00809360008091610085BBBF
:1001A00005C01092600089B7806189BF8F910F9060
:0C01B0000FBE0F901F901895F894FFCF21
:0C01BC00017B7F705F5B33796D307E004B
:00000001FF
