:100000000C942A000C943F000C943F000C943F0089
:100010000C943F000C943F000C943F000C943F0064
:100020000C943F000C943F000C943F000C943F0054
:100030000C943F000C943F000C943F000C943F0044
:100040000C943F000C943F000C943F000C943F0034
:100050000C943F0011241FBECFE5D8E0DEBFCDBF1A
:1000600010E0A0E6B0E0E0E4F4E002C005900D92FC
:10007000A037B107D9F70E9482010C941E020C949C
:10008000000080FF02C0C29A01C0C29881FF02C076
:10009000C39A01C0C39882FF02C0C49A01C0C49829
:1000A00083FF02C0C59A0895C59808951F93182F1D
:1000B000C19A82958F700E944100C198C19A812F88
:1000C0000E944100C19885E88A95F1F71F91089533
:1000D000C0980E9456000895C09A0E945600089544
:1000E000CF93DF93EC0103C021960E946C008881BE
:1000F0008823D1F7DF91CF9108956295660F660F3F
:10010000607C680F862F80680E946800089581E0F7
:100110000E94680080EA9FE00197F1F7089582E06D
:100120000E94680080EA9FE00197F1F708951F930D
:10013000CF93DF93BA9ABB9ABC9ABD9AB99AB89AF0
:1001400080E395E70197F1F7C098C19810E0C0E10E
:10015000D7E2C19A83E00E944100C198CE01019785
:10016000F1F71F5F1330A9F7C19A82E00E944100A6
:10017000C19880ED97E00197F1F788E20E9468004E
:1001800088E00E94680081E00E94680080EA9FE0A9
:100190000197F1F786E00E9468008CE00E946800F9
:1001A000DF91CF911F9108953E9A309A319A329AF9
:1001B000379A089524EF31E040E050E00E94C901F1
:1001C0002EEF33E040E050E00E94FC01C9010895A9
:1001D0008330C1F0843028F4813071F0823080F4B3
:1001E00009C08530A1F0853080F0863099F08730E5
:1001F000B1F412C0389801C0389A39983A980FC0B3
:10020000389801C0389A399AF9CF389801C0389A8D
:10021000399804C0389801C0389A399A3A9A369A6F
:100220003699FECF24B135B1C9010895EF92FF92FE
:100230000F931F93CF93DF937C018B01EA01A39A65
:1002400088E061E00E947D00980136952795CE01F7
:10025000821B930BE816F90628F02C0F3D1F2E1574
:100260003F0520F4AB9A80E690E003C0AB9884E6AB
:1002700090E00E947000DF91CF911F910F91FF904D
:10028000EF900895DF93CF93CDB7DEB728970FB6E1
:10029000F894DEBF0FBECDBF9C01DE011196E8E6EB
:1002A000F0E088E001900D928150E1F7C90164E629
:1002B00070E00E94E801CB016AE070E00E94E80172
:1002C000805D8983C9016AE070E00E94E801CB018A
:1002D0006AE070E00E94E801805D8B83C9016AE0FA
:1002E00070E00E94E801805D8C83CE0101960E943F
:1002F000700028960FB6F894DEBF0FBECDBFCF9129
:10030000DF910895CF92DF92EF92FF920F931F93A8
:100310000E9497000E948F000E9487000E94D400D4
:1003200080E00E94E800A0E0B0E0BC01CD010E94A6
:10033000DA006C0180E060E00E947D00C6010E944E
:10034000420181E00E94E800A0E0B0E0BC01CD01E4
:100350000E94DA007C0188E060E00E947D00C70115
:100360000E94420182E00E94E800A0E0B0E0BC01EF
:10037000CD010E94DA008C0180E061E00E947D00E6
:10038000C8010E944201C601B801A7010E941601DE
:10039000C7CF629FD001739FF001829FE00DF11DD6
:1003A000649FE00DF11D929FF00D839FF00D749FEF
:1003B000F00D659FF00D9927729FB00DE11DF91F9B
:1003C000639FB00DE11DF91FBD01CF0111240895F8
:1003D000AA1BBB1B51E107C0AA1FBB1FA617B7076B
:1003E00010F0A61BB70B881F991F5A95A9F7809587
:1003F0009095BC01CD010895A1E21A2EAA1BBB1B4A
:10040000FD010DC0AA1FBB1FEE1FFF1FA217B307E0
:10041000E407F50720F0A21BB30BE40BF50B661FF6
:10042000771F881F991F1A9469F7609570958095BA
:1004300090959B01AC01BD01CF010895F894FFCFC9
:100440004F4E20004F464600302C30305B565D004A
:00000001FF
