:100000000C942A000C943F000C943F000C943F0089
:100010000C943F000C943F000C943F000C943F0064
:100020000C943F000C943F000C943F000C943F0054
:100030000C943F000C943F000C943F000C943F0044
:100040000C943F000C943F000C943F000C943F0034
:100050000C943F0011241FBECFE5D8E0DEBFCDBF1A
:1000600010E0A0E6B0E0E0E0FAE002C005900D92FA
:10007000A437B107D9F70E94D4000C94FE040C9465
:10008000000080FF02C0C29A01C0C29881FF02C076
:10009000C39A01C0C39882FF02C0C49A01C0C49829
:1000A00083FF02C0C59A0895C59808951F93182F1D
:1000B000C19A82958F700E944100C198C19A812F88
:1000C0000E944100C19885E88A95F1F71F91089533
:1000D000C0980E9456000895C09A0E945600089544
:1000E000CF93DF93EC0103C021960E946C008881BE
:1000F0008823D1F7DF91CF9108956295660F660F3F
:10010000607C680F862F80680E946800089581E0F7
:100110000E94680080EA9FE00197F1F7089582E06D
:100120000E94680080EA9FE00197F1F708951F930D
:10013000CF93DF93BA9ABB9ABC9ABD9AB99AB89AF0
:1001400080E395E70197F1F7C098C19810E0C0E10E
:10015000D7E2C19A83E00E944100C198CE01019785
:10016000F1F71F5F1330A9F7C19A82E00E944100A6
:10017000C19880ED97E00197F1F788E20E9468004E
:1001800088E00E94680081E00E94680080EA9FE0A9
:100190000197F1F786E00E9468008CE00E946800F9
:1001A000DF91CF911F9108952F923F924F925F92CE
:1001B0006F927F928F929F92AF92BF92CF92DF9277
:1001C000EF92FF920F931F93DF93CF93CDB7DEB7DC
:1001D0006E970FB6F894DEBF0FBECDBF0E9497009A
:1001E0000E948F00DE011B96E3E6F0E081E10190C2
:1001F0000D928150E1F780EF81BB8FEF82BB0E94AF
:10020000870033248824992424E02E8F222400E0C0
:10021000DD247E010894E11CF11CCFC022B381E0F3
:1002200090E0062C02C0880F991F0A94E2F7C82EAE
:100230008095822382BB80B390E0AC8DBD8D8A23F4
:100240009B23892B09F0A3C0DD2061F4F501808197
:100250008D3341F4C70160E270E049E050E00E9454
:10026000170200E0D2011C91812F80538A3088F45C
:10027000002339F4C70160E270E049E050E00E94D9
:100280001702BE8D0B1728F4F701E00FF11D108344
:100290000F5F1D3211F01B32B9F4DD20A9F4F70114
:1002A000E00FF11D10830F5FE02FEC5FEE8FC701B1
:1002B0000E94F9014C011D3221F4202EDD24D3943B
:1002C00055C0202E22E0D22E1D3309F04FC0DD2074
:1002D00009F44CC0F1E02F1631F4C70160E270E080
:1002E00049E050E005C0C70160E270E0422D50E0F7
:1002F0000E94170221E0D21631F4C7010E94F901D1
:10030000881A990A05C0C7010E94F901880E991E32
:10031000C70160E270E049E050E00E94170200D09F
:1003200000D000D0EDB7FEB73196ADB7BEB712968C
:10033000FC92EE92119720E630E03383228395827F
:1003400084820E9426028DB79EB706960FB6F89457
:100350009EBF0FBE8DBF0E94870081E060E00E94BB
:100360007D00C7010E94700000E0DD240E9487002C
:1003700080E060E00E947D00C7010E94700080B3B1
:1003800090E0AC8DBD8D8A239B23892BC1F382B372
:10039000C82AC2BA0894611C711C0894411C511CE3
:1003A0000894A11CB11CB8E06B16710409F036CF9B
:1003B0003394E3E0E31508F43324832D90E021E047
:1003C00030E0032C02C0220F331F0A94E2F73D8F66
:1003D0002C8F5C01AA0CBB1CAA0CBB1C8BE090E010
:1003E0008C0F9D1FA80EB91E250184E0682E712C6C
:1003F00015CFFC0188279927E89421912032E9F351
:10040000293010F02E30C8F32B3241F02D3239F460
:10041000689404C00E941E02820F911D21912053F6
:100420002A30C0F31EF4909581959F4F0895DC010A
:1004300001C06D9341505040E0F708957AE0979FD6
:10044000902D879F802D910D11240895AEE0B0E08E
:10045000ECE2F2E00C94D5040D891E8986E08C83D1
:100460001A8309838FEF9FE79E838D839E01275E0A
:100470003F4FCE0101966F89788DA9010E944A02F3
:100480002F813885020F131FF80110822E96E4E0A9
:100490000C94F104ABE0B0E0E0E5F2E00C94C704AA
:1004A0003C012B015A01FC0117821682838181FDD8
:1004B00003C06FEF7FEFC6C19AE0892E1E0108943A
:1004C000211C311CF3012381F20123FD859123FFBF
:1004D00081912F01882309F4B2C1853239F423FDBB
:1004E000859123FF81912F01853229F490E0B3019A
:1004F0000E943D04E7CF982FFF24EE249924FFE1CA
:10050000FF15D0F09B3269F09C3228F4903259F0FC
:10051000933291F40EC09D3249F0903369F441E07A
:1005200024C052E0F52A84E0F82A28C098E0F92A8D
:1005300025C0E0E1FE2A22C0F7FC29C0892F8053A4
:100540008A3070F4F6FE05C0989C902C1124980E09
:1005500015C0E89CE02C1124E80EF0E2FF2A0EC042
:100560009E3229F4F6FC6BC140E4F42A07C09C36A5
:1005700019F450E8F52A02C0983649F4F20123FD37
:10058000959123FF91912F01992309F0B8CF892FDD
:100590008554833018F08052833038F444E050E0C2
:1005A000A40EB51E5FE359830FC0933631F0933725
:1005B00079F0933509F056C020C0F5018081898318
:1005C00042E050E0A40EB51E610101E010E012C04F
:1005D000F501C080D180F6FC03C06FEF7FEF02C051
:1005E000692D70E042E050E0A40EB51EC6010E94E5
:1005F00032048C015FE7F52214C0F501C080D18080
:10060000F6FC03C06FEF7FEF02C0692D70E042E09F
:1006100050E0A40EB51EC6010E9427048C0150E8CC
:10062000F52AF3FE07C01AC080E290E0B3010E94F1
:100630003D04EA948E2D90E008171907A8F30EC028
:10064000F601F7FC8591F7FE81916F0190E0B3010F
:100650000E943D04E110EA9401501040011511057B
:1006600079F7EAC0943611F0993669F5F7FE08C0BB
:10067000F501208131814281538184E090E00AC0FC
:10068000F501808191819C01442737FD4095542FCD
:1006900082E090E0A80EB91E9FE6F92257FF09C03C
:1006A00050954095309521953F4F4F4F5F4FE0E873
:1006B000FE2ACA01B901A1012AE030E00E946904C2
:1006C000D82ED21840C0953729F41F2D1F7E2AE05E
:1006D00030E01DC01F2D197F9F3661F0903720F448
:1006E000983509F0ACC00FC0903739F0983709F051
:1006F000A6C004C028E030E00AC0106114FD1460F8
:1007000020E130E004C014FD166020E132E017FF64
:1007100008C0F501608171818281938144E050E0DD
:1007200008C0F50180819181BC0180E090E042E049
:1007300050E0A40EB51EA1010E946904D82ED21863
:100740008FE7F82EF122F6FE0BC05EEFF522D914EA
:1007500038F4F4FE07C0F2FC05C08FEEF82202C0A8
:100760001D2D01C0192DF4FE0DC0FE01ED0DF11D72
:100770008081803319F499EEF92208C01F5FF2FEE0
:1007800005C003C08F2D867809F01F5F0F2DF3FC85
:1007900014C0F0FE0FC01E1510F09D2C0BC09D2C38
:1007A0009E0C911A1E2D06C080E290E0B3010E94BB
:1007B0003D041F5F1E15C0F304C01E1510F4E11A9E
:1007C00001C0EE2404FF0FC080E390E0B3010E945B
:1007D0003D0402FF1DC001FD03C088E790E00EC08C
:1007E00088E590E00BC0802F867891F001FF02C071
:1007F0008BE201C080E2F7FC8DE290E0B3010E9441
:100800003D0406C080E390E0B3010E943D049A9449
:10081000D914C0F3DA94F101ED0DF11D808190E05F
:10082000B3010E943D04DD20A9F706C080E290E0FC
:10083000B3010E943D04EA94EE20C1F743CEF301D8
:1008400066817781CB012B96E2E10C94E304FC01F5
:100850000590615070400110D8F7809590958E0FEB
:100860009F1F0895FC016150704001900110D8F75E
:10087000809590958E0F9F1F08950F931F93CF9390
:10088000DF938C01EB018B8181FF1BC082FF0DC0C8
:100890002E813F818C819D812817390764F4E8817E
:1008A000F9810193F983E88306C0E885F985802FF3
:1008B0000995892B31F48E819F8101969F838E83C8
:1008C00002C00FEF1FEFC801DF91CF911F910F9171
:1008D0000895FA01AA27283051F1203181F1E894D6
:1008E0006F936E7F6E5F7F4F8F4F9F4FAF4FB1E023
:1008F0003ED0B4E03CD0670F781F891F9A1FA11D1E
:10090000680F791F8A1F911DA11D6A0F711D811D1E
:10091000911DA11D20D009F468943F912AE0269FE3
:1009200011243019305D3193DEF6CF010895462F42
:100930004770405D4193B3E00FD0C9F7F6CF462F23
:100940004F70405D4A3318F0495D31FD405241938C
:1009500002D0A9F7EACFB4E0A69597958795779549
:100960006795BA95C9F700976105710508959B01D0
:10097000AC010A2E06945795479537952795BA9559
:10098000C9F7620F731F841F951FA01D08952F9232
:100990003F924F925F926F927F928F929F92AF920F
:1009A000BF92CF92DF92EF92FF920F931F93CF935C
:1009B000DF93CDB7DEB7CA1BDB0B0FB6F894DEBFF3
:1009C0000FBECDBF09942A88398848885F846E8419
:1009D0007D848C849B84AA84B984C884DF80EE8063
:1009E000FD800C811B81AA81B981CE0FD11D0FB66C
:1009F000F894DEBF0FBECDBFED010895F894FFCF90
:100A00002564002D3938372B363534433332313DA8
:040A100023302A0065
:00000001FF
